{
  "contractName": "HelloWorld",
  "abi": [
    {
      "constant": true,
      "inputs": [],
      "name": "defaultMessage",
      "outputs": [
        {
          "name": "",
          "type": "string"
        }
      ],
      "payable": false,
      "stateMutability": "view",
      "type": "function"
    },
    {
      "inputs": [],
      "payable": false,
      "stateMutability": "nonpayable",
      "type": "constructor"
    },
    {
      "constant": false,
      "inputs": [
        {
          "name": "newCountry",
          "type": "string"
        }
      ],
      "name": "Country",
      "outputs": [],
      "payable": false,
      "stateMutability": "nonpayable",
      "type": "function"
    }
  ],
  "bytecode": "0x608060405234801561001057600080fd5b506040805190810160405280600c81526020017f48656c6c6f20576f726c642100000000000000000000000000000000000000008152506000908051906020019061005c929190610062565b50610107565b828054600181600116156101000203166002900490600052602060002090601f016020900481019282601f106100a357805160ff19168380011785556100d1565b828001600101855582156100d1579182015b828111156100d05782518255916020019190600101906100b5565b5b5090506100de91906100e2565b5090565b61010491905b808211156101005760008160009055506001016100e8565b5090565b90565b61038f806101166000396000f30060806040526004361061004c576000357c0100000000000000000000000000000000000000000000000000000000900463ffffffff1680631681e56014610051578063878d2f60146100e1575b600080fd5b34801561005d57600080fd5b5061006661014a565b6040518080602001828103825283818151815260200191508051906020019080838360005b838110156100a657808201518184015260208101905061008b565b50505050905090810190601f1680156100d35780820380516001836020036101000a031916815260200191505b509250505060405180910390f35b3480156100ed57600080fd5b50610148600480360381019080803590602001908201803590602001908080601f01602080910402602001604051908101604052809392919081815260200183838082843782019150505050505091929192905050506101e8565b005b60008054600181600116156101000203166002900480601f0160208091040260200160405190810160405280929190818152602001828054600181600116156101000203166002900480156101e05780601f106101b5576101008083540402835291602001916101e0565b820191906000526020600020905b8154815290600101906020018083116101c357829003601f168201915b505050505081565b8060405160200180807f48656c6c6f20000000000000000000000000000000000000000000000000000081525060060182805190602001908083835b6020831015156102495780518252602082019150602081019050602083039250610224565b6001836020036101000a038019825116818451168082178552505050505050905001807f2066726f6d20456c6576656e3031000000000000000000000000000000000000815250600e01915050604051602081830303815290604052600090805190602001906102ba9291906102be565b5050565b828054600181600116156101000203166002900490600052602060002090601f016020900481019282601f106102ff57805160ff191683800117855561032d565b8280016001018555821561032d579182015b8281111561032c578251825591602001919060010190610311565b5b50905061033a919061033e565b5090565b61036091905b8082111561035c576000816000905550600101610344565b5090565b905600a165627a7a72305820933f2c060e9fe7fc28d44b6202c8c9898d95d8c9684112b23f51ca570ea941b50029",
  "source": "pragma solidity ^0.4.24;\r\n\r\ncontract HelloWorld {\r\n\r\n    string public defaultMessage;\r\n\r\n    constructor() public  {\r\n        defaultMessage = \"Hello World!\";\r\n    }\r\n\r\n    function Country(string newCountry) public {\r\n        defaultMessage = string(abi.encodePacked(\"Hello \", newCountry, \" from Eleven01\"));\r\n    }\r\n}",
  "sourcePath": "E:\\Eleven01DApps\\contracts\\HelloWorld.sol",
  "compiler": {
    "name": "solc",
    "version": "0.4.25+commit.59dbf8f1.Emscripten.clang"
  },
  "schemaVersion": "2.0.2",
  "updatedAt": "2019-06-07T08:58:31.220Z"
}